:100000000C9457000C94BD080C946F070C94BD0819
:100010000C94BD080C94BD080C94BD080C94BD084C
:100020000C94BD080C94BD080C94BD080C94BD083C
:100030000C94BD080C94BD080C94BD080C94BD082C
:100040000C94BD080C94BD080C94BD080C94BD081C
:100050000C94BD080C94BD080C94BD080C94BD080C
:100060000C94BD080C94BD080C94BD080C94BD08FC
:100070000C94BD080C94BD080C94BD080C94BD08EC
:100080000C94BD080C94BD080C94BD080C94BD08DC
:1000900028002856802856287A00118A287A289E17
:1000A00080289E28AC0011AE28AC28B38000112413
:1000B0001FBECFEFCDBFDFE3DEBFE0E9F0E040E001
:1000C00017C0B591A59135912591059107FD0CC0FB
:1000D00095918591EF01F92FE82F05900D92A217C8
:1000E000B307D9F7FE0104C01D92A217B307E1F7C9
:1000F000ED3AF40731F70E94DB020C947F00F8948C
:02010000FFCF2F
:10010200ABE0B0E0E7E8F0E00C94A4066C017B0100
:100112008A01FC0116821782838181FFCCC1CE0144
:1001220001963C01F6019381F70193FD859193FFBE
:1001320081917F01882309F4BAC1853239F493FD94
:10014200859193FF81917F01853229F4B60190E078
:100152000E948504E7CF912C212C312CFFE1F3156D
:10016200D8F08B3279F038F4803279F08332A1F40E
:10017200232D20611DC08D3261F0803369F4232D5F
:10018200216016C0832D8260382EE32DE4603E2E5E
:100192002AC0F32DF8601DC037FC2DC020ED280FBA
:1001A2002A3040F08E32B9F436FC81C1232D20640E
:1001B200322E19C036FE06C08AE0989E200D112408
:1001C200922E11C0EAE02E9E200D1124222EF32D34
:1001D200F0623F2E08C08C3621F4832D8068382EC1
:1001E20002C0883641F4F70193FD859193FF819116
:1001F2007F018111B3CF982F9F7D9554933028F4BE
:100202000C5F1F4F9FE399830DC0833631F0833714
:1002120071F0833509F059C021C0F80180818983CA
:100222000E5F1F4F88248394912C530113C0280121
:10023200F2E04F0E511CF801A080B18036FE03C0DF
:10024200692D70E002C06FEF7FEFC5010E941208B6
:100252004C018201F32DFF773F2E16C0280122E0C8
:10026200420E511CF801A080B18036FE03C0692DF8
:1002720070E002C06FEF7FEFC5010E9407084C01DA
:10028200F32DF0683F2E820133FC1BC0822D90E0DB
:1002920088169906B0F4B60180E290E00E948504C7
:1002A2002A94F4CFF50137FC859137FE81915F01E5
:1002B200B60190E00E94850421102A9421E0821A5E
:1002C20091088114910471F7E8C0843611F08936DF
:1002D20041F5F80137FE07C0608171818281938107
:1002E2000C5F1F4F08C060817181072E000C880BC4
:1002F200990B0E5F1F4FF32DFF763F2E97FF09C01C
:1003020090958095709561957F4F8F4F9F4FF068C4
:100312003F2E2AE030E0A3010E944003882E861877
:1003220045C0853731F4232D2F7EB22E2AE030E0EE
:1003320025C0932D997FB92E8F36C1F018F48835D8
:1003420079F0B5C0803719F0883721F0B0C0E92FB5
:10035200E061BE2EB4FE0DC0FB2DF460BF2E09C0BD
:1003620034FE0AC0292F2660B22E06C028E030E0F3
:1003720005C020E130E002C020E132E0F801B7FE22
:1003820007C060817181828193810C5F1F4F06C01B
:100392006081718180E090E00E5F1F4FA3010E9497
:1003A2004003882E8618FB2DFF773F2E36FE0DC0A8
:1003B200232D2E7FA22E891458F434FE0BC032FC5A
:1003C20009C0832D8E7EA82E05C0B82CA32C03C095
:1003D200B82C01C0B92CA4FE0FC0FE01E80DF11D1E
:1003E2008081803321F49A2D997EA92E09C0A2FE24
:1003F20006C0B394B39404C08A2D867809F0B394EE
:10040200A3FC11C0A0FE06C0B21488F4280C922CE2
:100412009B180EC0B21460F4B60180E290E00E9414
:100422008504B394F7CFB21418F42B1802C0982C99
:10043200212CA4FE10C0B60180E390E00E94850446
:10044200A2FE17C0A1FC03C088E790E002C088E5C5
:1004520090E0B6010CC08A2D867859F0A1FE02C048
:100462008BE201C080E2A7FC8DE2B60190E00E941F
:100472008504891438F4B60180E390E00E94850473
:100482009A94F7CF8A94F301E80DF11D8081B601A9
:1004920090E00E9485048110F5CF222009F442CE1B
:1004A200B60180E290E00E9485042A94F6CFF6011C
:1004B2008681978102C08FEF9FEF2B96E2E10C9429
:0204C200BD0675
:1004C4000F931F93CF93DF930E94F90440E054E00D
:1004D400FA01108220E234E0F901108280E494E011
:1004E400FC011082C0E6D4E01882A0E8B4E01C92BB
:1004F40000EA14E069E0F8016083FA011482F9016A
:100504001482FC0114821C8214961C921497F80124
:100514001482FA01108A118A128A138A148A158A9B
:10052400168A178AF901108A118A128A138A148A80
:10053400158A168A178AFC01108A118A128A138A6C
:10054400148A158A168A178A188A198A1A8A1B8A9B
:100554001C8A1D8A1E8A1F8A50961C925097519697
:100564001C92519752961C92529753961C925397F1
:1005740054961C92549755961C92559756961C92D5
:10058400569757961C92F801108A118A128A138A78
:10059400148A158A168A178AE0EEF5E01182108211
:1005A4001482158213821282DF91CF911F910F91D1
:0205B4000895A8
:1005B600CF93DF93CDB7DEB72597CDBFDEBF0E94C1
:1005C6005E070F2EF4E6AF2EB12CF02D0F2EF6E7B8
:1005D600CF2EFEE4DF2EF02D0F2EF5E8EF2EFEE4F3
:1005E600FF2EF02D2FE784E89EE1215080409040B9
:1005F600E1F700C0000041E06CE48AE00E94640577
:1006060045E050E0BE016F5F7F4F8AE00E946E06B4
:100616000C8110E0102F00278B81080F111D00930D
:10062600AE281093AF280E949E03C801112324F41C
:1006360088279927801B910BB5010E9401079F937C
:100646008F939801ADECBCEC0E947E07969587953A
:1006560096958795969587959F938F93DF92CF92E0
:100666000E94EB068091B0281F928F93FF92EF9223
:0A0676000E94EB06CDBFDEBFB5CF3A
:10068000FA01AA27283051F1203181F1E8946F93C3
:100690006E7F6E5F7F4F8F4F9F4FAF4FB1E03ED069
:1006A000B4E03CD0670F781F891F9A1FA11D680F07
:1006B000791F8A1F911DA11D6A0F711D811D911D3A
:1006C000A11D20D009F468943F912AE0269F1124AF
:1006D0003019305D3193DEF6CF010895462F477013
:1006E000405D4193B3E00FD0C9F7F6CF462F4F706E
:1006F000405D4A3318F0495D31FD4052419302D0CC
:10070000A9F7EACFB4E0A695979587957795679571
:10071000BA95C9F700976105710508959B01AC0171
:100720000A2E06945795479537952795BA95C9F798
:0C073000620F731F841F951FA01D089509
:10073C00E4E5F8E226E038E2929182918283938399
:10074C002E173F07C9F72091AE283091AF28209380
:10075C000628309307288091AC289091AD288430DE
:10076C00910538F401968093AC289093AD280497AA
:10077C00B0F18091B22881110DC080910C2890911C
:10078C000D28281B390B2530310514F181E080939D
:10079C00B22819C080910C2890910D28821B930BC4
:1007AC000A978CF01092B22813C01092B128809145
:1007BC00B228882391F081E08093B12810C081E0A9
:1007CC008093B0280CC08091B0288823C1F3EDCF62
:1007DC008091B028882319F0E8CF1092B02881E0DE
:0207EC0008956E
:1007EE00EDE9F8E280818E7F808380919928909147
:1007FE009A28019719F40E948C0802C00E9486085C
:10080E00EAE7F8E2878D90A10197878F90A3892B55
:10081E0071F0A58DB68D8091A8088C93858D968DDF
:10082E000196858F968F0E94740884E00895AAE73A
:10083E00B8E25D96ED91FC915E978091A808808359
:10084E005D968D919C915E9701965D968D939C938E
:10085E005E97EDE9F8E2808188608083ED91FC91EE
:10086E0011971C968D919C911D97099582508230FF
:10087E0020F40E948C0888E008950E94A80708952D
:10088E000E9492088823C9F0AAE7B8E21696ED9165
:10089E00FC91179752968D919C91539709958230A2
:1008AE0019F0833021F006C00E949B0708950E9424
:1008BE00CD0708950E94FC070895EDE9F8E28081C6
:1008CE0088608083AAE7B8E2ED91FC9111971C969F
:1008DE008D919C911D970995833039F0843041F0AC
:1008EE00823049F40E949B0708950E94CD07089517
:0C08FE000E94C10408950E94FC070895A8
:10090A000F931F93CF93DF93FB01238121FD03C034
:10091A008FEF9FEF2CC022FF16C04681578124819A
:10092A0035814217530744F4A081B1819D012F5F9D
:10093A003F4F208331838C93268137812F5F3F4F2E
:10094A002683378314C08B01EC01FB010084F185F7
:10095A00E02D0995892BE1F6D80116968D919C9187
:10096A001797019616968D939C931797CE01DF9150
:08097A00CF911F910F91089528
:100982000E9492088823C9F0AAE7B8E21696ED9170
:10099200FC91179752968D919C91539709958230AD
:1009A20019F0833021F006C00E949B0708950E942F
:1009B200CD0708950E94FC070895EDE9F8E28081D1
:1009C2008E7F8083EAE7F8E2A58DB68DCD01019690
:1009D200858F968F8C918093A808878D90A101971F
:1009E200878F90A3892B11F485E0089583E0089501
:1009F200E0E9F4E0808188608193E83984E0F807D7
:100A0200C9F7E0EBF4E0808188608193E83B84E001
:100A1200F807C9F7E0E1F4E0808188608193E8316A
:100A220084E0F807C9F7E0E3F4E08081886081930D
:100A3200E83384E0F807C9F7E0E5F4E080818860F4
:100A42008193E83584E0F807C9F7E0E7F4E08081B4
:0E0A520088608193E83784E0F807C9F70895BB
:100A600090919D2892FD2EC0EAE7F8E2848FADE9CF
:100A7000B8E2892F887F9EE091A324EF31E0228F96
:100A8000338F846088608C938FEB98E080839183B0
:100A900014861586828393831686178684839583AE
:100AA000108A118A86839783128A138A81EC98E0D0
:100AB00080879187148A158A0E9426080E946208FE
:080AC00080E0089581E0089533
:100AC8001F93CF93DF9300D0CDB7DEB7182F69837C
:100AD8004A83812F0E9430058823D9F3BE016E5FB7
:100AE8007F4F85EB97E00E94500861E070E0CE01EF
:100AF80001960E944D0760E070E083EC98E00E9448
:100B080056080E94A4080E9409068130E1F30F905C
:0A0B18000F90DF91CF911F91089517
:100B2200CF93DF930E94620880919D2880FF07C0C7
:100B32000E949208882319F08FE080939B280E94DC
:100B42006E08882319F080E180939B280E94680830
:100B5200882319F081E180939B28CAE7D8E2E9A1B2
:100B6200F0E0EE0FFF1FEA5AF74D0190F081E02D01
:0A0B7200099589A3DF91CF91089542
:100B7C0040E068ED88E790E00E949C0840E068ED5A
:100B8C008CE790E00E949C0840E068ED80E790E0E4
:100B9C000E949C0841E068ED81E690E00E949C0870
:100BAC0040E068ED80E690E00E949C0840E068ED33
:0C0BBC0082E690E00E949C0880E0089512
:100BC8006115710581F090E0FC01EE0FFF1FE658FA
:100BD800F74D60837183880F991FFC01EA57F74D21
:100BE80040835183089590E0FC01EE0FFF1FE65803
:100BF800F74D2FEB38E020833183880F991FFC01D4
:0A0C0800EA57F74D1082118208959B
:100C1200CF93DF930E946808882341F0EDE9F8E260
:100C220080818D7F808382E080939C2880919D28A3
:100C320081FD0EC0EDE9F8E28B7F8083CAE7D8E23E
:100C42008FEF8C8F0E9462080E945C088AA101C00B
:080C520081E0DF91CF910895CC
:100C5A00EDE9F8E280818E7F8083AAE7B8E282E03C
:100C6A0092968C9392971496ED91FC9115975096C3
:100C7A008D919C9151970995823019F0833021F01A
:100C8A0006C00E949B0708950E94CD0708950E94FE
:040C9A00FC070895B6
:100C9E000E947A08AAE7B8E282E092968C93929725
:100CAE001296ED91FC9113971E968D919C911F9724
:100CBE000995823019F0833021F006C00E949B07FF
:0E0CCE0008950E94CD0708950E94F107089531
:100CDC00EF92FF920F931F93CF93C82F8B017A0142
:100CEC008C2F0E9430058823D9F3B701C8010E94CC
:100CFC004D070E94A0080E9409068130E1F3CF91B4
:0A0D0C001F910F91FF90EF900895E2
:100D160090919D2891FD13C0EDE9F8E292609083D1
:100D2600882321F081E080939B2803C082E0809392
:100D36009B280E9491050E94290780E0089581E082
:020D460008950E
:100D48002F923F924F925F926F927F928F929F92D3
:100D5800AF92BF92CF92DF92EF92FF920F931F93C1
:100D6800CF93DF93CDB7DEB7CA1BDB0BCDBFDEBF9A
:020D78000994DC
:100D7A002A88398848885F846E847D848C849B8421
:100D8A00AA84B984C884DF80EE80FD800C811B812F
:100D9A00AA81B981CE0FD11DCDBFDEBFED01089565
:100DAA00E0E4F8E087E490E180879187158280EC9F
:100DBA00868383E0878313861486168615868EE9D2
:0C0DCA0098E2809302289093032808957B
:100DD600A0E0B0E0E1EFF6E00C94B406AE014B5FA4
:100DE6005F4FFA0161917191AF0180910228909154
:0C0DF60003280E948100E2E00C94CD066E
:100E020097FB072E16F4009407D077FD09D00E94B5
:100E1200150707FC05D03EF4909581959F4F0895E4
:080E2200709561957F4F089562
:100E2A00AA1BBB1B51E107C0AA1FBB1FA617B70706
:100E3A0010F0A61BB70B881F991F5A95A9F7809522
:080E4A009095BC01CD01089553
:100E5200CF93DF9380919D2881FF09C0CDE9D8E22D
:100E62000E942F080E949105888181FDF9CFDF91B0
:040E7200CF9108957F
:100E76000A54656D703A2025642E25303264000AC6
:100E86004F63637570616E63793A20257520202063
:030E960020200019
:100E9A009C0190919D2893FF0BC0EAE7F8E2258F09
:100EAA00368F678F70A3EDE9F8E2892F877F8083F9
:020EBA00089599
:100EBC000E9462020E94E5070E9448080E94BE053B
:100ECC000E9440080E948D070E94D5060E94C1070F
:020EDC00089577
:100EDE001F920F920FB60F9211248F9381E0809381
:0E0EEE008A008F910F900FBE0F901F901895E5
:100EFC00A29FB001B39FC001A39F700D811D11244F
:0E0F0C00911DB29F700D811D1124911D08953D
:100F1A00E0EAF8E0108212828DE2868381E0838320
:0C0F2A00158217821482108680E0089562
:100F3600EDE9F8E280818160808380919628880FB0
:0A0F460081608093A70884E00895FD
:100F50000E948C080E948008EDE9F8E280818D7F74
:0A0F6000808310929C2880E0089521
:100F6A0061E070E00E944D0760E070E080E090E090
:080F7A000E94500884E0089574
:100F820040E068ED80E191E00E949C08E0E1F1E040
:080F92001282138280E0089531
:100F9A00EDE9F8E280818160808380919628880F4C
:080FAA008093A70883E008957D
:100FB2000E942608EDE9F8E280818D7F808382E03D
:080FC20080939C288EE0089545
:100FCA0040E068ED80E890E00E949C08E0E8F0E0EC
:080FDA001186108680E00895E5
:100FE2000E942608EDE9F8E280818D7F80831092CD
:060FF2009C288EE008952A
:100FF8000E948008EDE9F8E280818D7F808310925D
:061008009C2880E0089521
:10100E00FC010590615070400110D8F780959095C5
:06101E008E0F9F1F0895D4
:10102400FC016150704001900110D8F780959095B3
:061034008E0F9F1F0895BE
:10103A00EDE9F8E280818D7F808310929C2880E020
:02104A00089507
:10104C00E0EAF8E08481886084838581816085830F
:02105C000895F5
:10105E00E0EAF8E0858188231CF0858186FFFACFCF
:02106E000895E3
:10107000E0E4F8E0948195FFFDCF80934208089565
:1010800040E068ED80E590E00E949C0880E00895D3
:1010900040E068ED80E091E00E949C0880E00895C7
:0C10A000AB01BC0180E00E94E405089553
:0C10AC00AB01BC0182E00E94E405089545
:0C10B800E0EAF8E083818F7383830895E1
:0C10C400E0EAF8E08581806C85830895E7
:0C10D0008091A50882FB882780F9089514
:0C10DC008091A50883FB882780F9089507
:0C10E800E0EAF8E08481826084830895CF
:0C10F400E0EAF8E08581886085830895BB
:0C110000E0EAF8E08481836084830895B5
:0C110C00E0EAF8E084818B7F8483089582
:0C111800E0EAF8E084818460848308959C
:0A1124008091A5088295817008955E
:0A112E000E94380880E090E0089568
:08113800FC0164BF408308952F
:0811400081E00E948B06089576
:0811480080E00E948B0608956F
:081150000E94860883E0089567
:081158000E94860884E008955E
:081160000E948C0888E008954C
:061168000E949B070895A0
:06116E000E949B0708959A
:061174000E94CD07089562
:04117A000C940000D1
:04117E0081E008956F
:0411820085E0089567
:0411860083E0089565
:10118A001D089B07CD07C104F7034704B708BA082F
:10119A00B408FC07AC08A808A807B008F1072D0690
:0411AA004F06D9070C
:0E11AE00000000020000000097080000000092
:02000004008278
:090000000000020000C00700002E
:00000001FF
